{
  "_format": "hh-sol-artifact-1",
  "contractName": "Marketplace",
  "sourceName": "contracts/Marketplace.sol",
  "abi": [
    {
      "inputs": [],
      "stateMutability": "nonpayable",
      "type": "constructor"
    },
    {
      "anonymous": false,
      "inputs": [
        {
          "indexed": true,
          "internalType": "address",
          "name": "owner",
          "type": "address"
        },
        {
          "indexed": true,
          "internalType": "address",
          "name": "approved",
          "type": "address"
        },
        {
          "indexed": true,
          "internalType": "uint256",
          "name": "tokenId",
          "type": "uint256"
        }
      ],
      "name": "Approval",
      "type": "event"
    },
    {
      "anonymous": false,
      "inputs": [
        {
          "indexed": true,
          "internalType": "address",
          "name": "owner",
          "type": "address"
        },
        {
          "indexed": true,
          "internalType": "address",
          "name": "operator",
          "type": "address"
        },
        {
          "indexed": false,
          "internalType": "bool",
          "name": "approved",
          "type": "bool"
        }
      ],
      "name": "ApprovalForAll",
      "type": "event"
    },
    {
      "anonymous": false,
      "inputs": [
        {
          "indexed": true,
          "internalType": "uint256",
          "name": "tokenId",
          "type": "uint256"
        },
        {
          "indexed": false,
          "internalType": "address",
          "name": "seller",
          "type": "address"
        },
        {
          "indexed": false,
          "internalType": "address",
          "name": "owner",
          "type": "address"
        },
        {
          "indexed": false,
          "internalType": "uint256",
          "name": "price",
          "type": "uint256"
        },
        {
          "indexed": false,
          "internalType": "bool",
          "name": "sold",
          "type": "bool"
        }
      ],
      "name": "MarketItemCreated",
      "type": "event"
    },
    {
      "anonymous": false,
      "inputs": [
        {
          "indexed": true,
          "internalType": "address",
          "name": "from",
          "type": "address"
        },
        {
          "indexed": true,
          "internalType": "address",
          "name": "to",
          "type": "address"
        },
        {
          "indexed": true,
          "internalType": "uint256",
          "name": "tokenId",
          "type": "uint256"
        }
      ],
      "name": "Transfer",
      "type": "event"
    },
    {
      "inputs": [
        {
          "internalType": "address",
          "name": "to",
          "type": "address"
        },
        {
          "internalType": "uint256",
          "name": "tokenId",
          "type": "uint256"
        }
      ],
      "name": "approve",
      "outputs": [],
      "stateMutability": "nonpayable",
      "type": "function"
    },
    {
      "inputs": [
        {
          "internalType": "address",
          "name": "owner",
          "type": "address"
        }
      ],
      "name": "balanceOf",
      "outputs": [
        {
          "internalType": "uint256",
          "name": "",
          "type": "uint256"
        }
      ],
      "stateMutability": "view",
      "type": "function"
    },
    {
      "inputs": [
        {
          "internalType": "uint256",
          "name": "tokenId",
          "type": "uint256"
        }
      ],
      "name": "createMarketSale",
      "outputs": [],
      "stateMutability": "payable",
      "type": "function"
    },
    {
      "inputs": [
        {
          "internalType": "string",
          "name": "tokenURI",
          "type": "string"
        },
        {
          "internalType": "uint256",
          "name": "price",
          "type": "uint256"
        }
      ],
      "name": "createToken",
      "outputs": [
        {
          "internalType": "uint256",
          "name": "",
          "type": "uint256"
        }
      ],
      "stateMutability": "payable",
      "type": "function"
    },
    {
      "inputs": [],
      "name": "fetchMarketItems",
      "outputs": [
        {
          "components": [
            {
              "internalType": "uint256",
              "name": "tokenId",
              "type": "uint256"
            },
            {
              "internalType": "address payable",
              "name": "seller",
              "type": "address"
            },
            {
              "internalType": "address payable",
              "name": "owner",
              "type": "address"
            },
            {
              "internalType": "uint256",
              "name": "price",
              "type": "uint256"
            },
            {
              "internalType": "bool",
              "name": "sold",
              "type": "bool"
            }
          ],
          "internalType": "struct Marketplace.MarketItem[]",
          "name": "",
          "type": "tuple[]"
        }
      ],
      "stateMutability": "view",
      "type": "function"
    },
    {
      "inputs": [],
      "name": "fetchMyItems",
      "outputs": [
        {
          "components": [
            {
              "internalType": "uint256",
              "name": "tokenId",
              "type": "uint256"
            },
            {
              "internalType": "address payable",
              "name": "seller",
              "type": "address"
            },
            {
              "internalType": "address payable",
              "name": "owner",
              "type": "address"
            },
            {
              "internalType": "uint256",
              "name": "price",
              "type": "uint256"
            },
            {
              "internalType": "bool",
              "name": "sold",
              "type": "bool"
            }
          ],
          "internalType": "struct Marketplace.MarketItem[]",
          "name": "",
          "type": "tuple[]"
        }
      ],
      "stateMutability": "view",
      "type": "function"
    },
    {
      "inputs": [],
      "name": "fetchMyListedItems",
      "outputs": [
        {
          "components": [
            {
              "internalType": "uint256",
              "name": "tokenId",
              "type": "uint256"
            },
            {
              "internalType": "address payable",
              "name": "seller",
              "type": "address"
            },
            {
              "internalType": "address payable",
              "name": "owner",
              "type": "address"
            },
            {
              "internalType": "uint256",
              "name": "price",
              "type": "uint256"
            },
            {
              "internalType": "bool",
              "name": "sold",
              "type": "bool"
            }
          ],
          "internalType": "struct Marketplace.MarketItem[]",
          "name": "",
          "type": "tuple[]"
        }
      ],
      "stateMutability": "view",
      "type": "function"
    },
    {
      "inputs": [
        {
          "internalType": "uint256",
          "name": "tokenId",
          "type": "uint256"
        }
      ],
      "name": "getApproved",
      "outputs": [
        {
          "internalType": "address",
          "name": "",
          "type": "address"
        }
      ],
      "stateMutability": "view",
      "type": "function"
    },
    {
      "inputs": [],
      "name": "getContractAddress",
      "outputs": [
        {
          "internalType": "address",
          "name": "",
          "type": "address"
        }
      ],
      "stateMutability": "view",
      "type": "function"
    },
    {
      "inputs": [],
      "name": "getContractBalance",
      "outputs": [
        {
          "internalType": "uint256",
          "name": "",
          "type": "uint256"
        }
      ],
      "stateMutability": "view",
      "type": "function"
    },
    {
      "inputs": [],
      "name": "getListingPrice",
      "outputs": [
        {
          "internalType": "uint256",
          "name": "",
          "type": "uint256"
        }
      ],
      "stateMutability": "pure",
      "type": "function"
    },
    {
      "inputs": [],
      "name": "getOwnerAddress",
      "outputs": [
        {
          "internalType": "address",
          "name": "",
          "type": "address"
        }
      ],
      "stateMutability": "view",
      "type": "function"
    },
    {
      "inputs": [],
      "name": "getOwnerBalance",
      "outputs": [
        {
          "internalType": "uint256",
          "name": "",
          "type": "uint256"
        }
      ],
      "stateMutability": "view",
      "type": "function"
    },
    {
      "inputs": [
        {
          "internalType": "address",
          "name": "owner",
          "type": "address"
        },
        {
          "internalType": "address",
          "name": "operator",
          "type": "address"
        }
      ],
      "name": "isApprovedForAll",
      "outputs": [
        {
          "internalType": "bool",
          "name": "",
          "type": "bool"
        }
      ],
      "stateMutability": "view",
      "type": "function"
    },
    {
      "inputs": [],
      "name": "name",
      "outputs": [
        {
          "internalType": "string",
          "name": "",
          "type": "string"
        }
      ],
      "stateMutability": "view",
      "type": "function"
    },
    {
      "inputs": [
        {
          "internalType": "uint256",
          "name": "tokenId",
          "type": "uint256"
        }
      ],
      "name": "ownerOf",
      "outputs": [
        {
          "internalType": "address",
          "name": "",
          "type": "address"
        }
      ],
      "stateMutability": "view",
      "type": "function"
    },
    {
      "inputs": [
        {
          "internalType": "uint256",
          "name": "tokenId",
          "type": "uint256"
        },
        {
          "internalType": "uint256",
          "name": "price",
          "type": "uint256"
        }
      ],
      "name": "resellToken",
      "outputs": [],
      "stateMutability": "payable",
      "type": "function"
    },
    {
      "inputs": [
        {
          "internalType": "address",
          "name": "from",
          "type": "address"
        },
        {
          "internalType": "address",
          "name": "to",
          "type": "address"
        },
        {
          "internalType": "uint256",
          "name": "tokenId",
          "type": "uint256"
        }
      ],
      "name": "safeTransferFrom",
      "outputs": [],
      "stateMutability": "nonpayable",
      "type": "function"
    },
    {
      "inputs": [
        {
          "internalType": "address",
          "name": "from",
          "type": "address"
        },
        {
          "internalType": "address",
          "name": "to",
          "type": "address"
        },
        {
          "internalType": "uint256",
          "name": "tokenId",
          "type": "uint256"
        },
        {
          "internalType": "bytes",
          "name": "_data",
          "type": "bytes"
        }
      ],
      "name": "safeTransferFrom",
      "outputs": [],
      "stateMutability": "nonpayable",
      "type": "function"
    },
    {
      "inputs": [
        {
          "internalType": "address",
          "name": "operator",
          "type": "address"
        },
        {
          "internalType": "bool",
          "name": "approved",
          "type": "bool"
        }
      ],
      "name": "setApprovalForAll",
      "outputs": [],
      "stateMutability": "nonpayable",
      "type": "function"
    },
    {
      "inputs": [
        {
          "internalType": "bytes4",
          "name": "interfaceId",
          "type": "bytes4"
        }
      ],
      "name": "supportsInterface",
      "outputs": [
        {
          "internalType": "bool",
          "name": "",
          "type": "bool"
        }
      ],
      "stateMutability": "view",
      "type": "function"
    },
    {
      "inputs": [],
      "name": "symbol",
      "outputs": [
        {
          "internalType": "string",
          "name": "",
          "type": "string"
        }
      ],
      "stateMutability": "view",
      "type": "function"
    },
    {
      "inputs": [
        {
          "internalType": "uint256",
          "name": "tokenId",
          "type": "uint256"
        }
      ],
      "name": "tokenURI",
      "outputs": [
        {
          "internalType": "string",
          "name": "",
          "type": "string"
        }
      ],
      "stateMutability": "view",
      "type": "function"
    },
    {
      "inputs": [
        {
          "internalType": "address",
          "name": "from",
          "type": "address"
        },
        {
          "internalType": "address",
          "name": "to",
          "type": "address"
        },
        {
          "internalType": "uint256",
          "name": "tokenId",
          "type": "uint256"
        }
      ],
      "name": "transferFrom",
      "outputs": [],
      "stateMutability": "nonpayable",
      "type": "function"
    }
  ],
  "bytecode": "0x60a06040523480156200001157600080fd5b506040518060400160405280600d81526020017f536e6f776d6120546f6b656e73000000000000000000000000000000000000008152506040518060400160405280600381526020017f534e4d0000000000000000000000000000000000000000000000000000000000815250816000908051906020019062000096929190620000ef565b508060019080519060200190620000af929190620000ef565b5050503373ffffffffffffffffffffffffffffffffffffffff1660808173ffffffffffffffffffffffffffffffffffffffff1660601b8152505062000204565b828054620000fd906200019f565b90600052602060002090601f0160209004810192826200012157600085556200016d565b82601f106200013c57805160ff19168380011785556200016d565b828001600101855582156200016d579182015b828111156200016c5782518255916020019190600101906200014f565b5b5090506200017c919062000180565b5090565b5b808211156200019b57600081600090555060010162000181565b5090565b60006002820490506001821680620001b857607f821691505b60208210811415620001cf57620001ce620001d5565b5b50919050565b7f4e487b7100000000000000000000000000000000000000000000000000000000600052602260045260246000fd5b60805160601c61434b62000231600039600081816108b6015281816111dc015261170a015261434b6000f3fe60806040526004361061014b5760003560e01c8063590791f2116100b6578063a22cb4651161006f578063a22cb4651461049d578063b88d4fde146104c6578063be9af536146104ef578063c87b56dd1461050b578063e219fc7514610548578063e985e9c5146105645761014b565b8063590791f2146103725780636352211e1461039d5780636f9fb98a146103da57806370a082311461040557806372b3b6201461044257806395d89b41146104725761014b565b806312e855851161010857806312e855851461027457806315c9ae101461029f57806323b872dd146102ca57806332a2c5d0146102f35780633c05acd41461031e57806342842e0e146103495761014b565b806301ffc9a71461015057806306fdde031461018d578063081812fc146101b8578063095ea7b3146101f55780630c4f65bd1461021e5780630f08efe014610249575b600080fd5b34801561015c57600080fd5b5061017760048036038101906101729190612f50565b6105a1565b604051610184919061362e565b60405180910390f35b34801561019957600080fd5b506101a2610683565b6040516101af9190613649565b60405180910390f35b3480156101c457600080fd5b506101df60048036038101906101da9190612ffa565b610715565b6040516101ec9190613560565b60405180910390f35b34801561020157600080fd5b5061021c60048036038101906102179190612f14565b61079a565b005b34801561022a57600080fd5b506102336108b2565b6040516102409190613560565b60405180910390f35b34801561025557600080fd5b5061025e6108da565b60405161026b919061360c565b60405180910390f35b34801561028057600080fd5b50610289610b23565b604051610296919061392b565b60405180910390f35b3480156102ab57600080fd5b506102b4610b32565b6040516102c1919061360c565b60405180910390f35b3480156102d657600080fd5b506102f160048036038101906102ec9190612e0e565b610e41565b005b3480156102ff57600080fd5b50610308610ea1565b6040516103159190613560565b60405180910390f35b34801561032a57600080fd5b50610333610ea9565b604051610340919061360c565b60405180910390f35b34801561035557600080fd5b50610370600480360381019061036b9190612e0e565b6111b8565b005b34801561037e57600080fd5b506103876111d8565b604051610394919061392b565b60405180910390f35b3480156103a957600080fd5b506103c460048036038101906103bf9190612ffa565b611217565b6040516103d19190613560565b60405180910390f35b3480156103e657600080fd5b506103ef6112c9565b6040516103fc919061392b565b60405180910390f35b34801561041157600080fd5b5061042c60048036038101906104279190612da9565b6112d1565b604051610439919061392b565b60405180910390f35b61045c60048036038101906104579190612fa2565b611389565b604051610469919061392b565b60405180910390f35b34801561047e57600080fd5b50610487611419565b6040516104949190613649565b60405180910390f35b3480156104a957600080fd5b506104c460048036038101906104bf9190612ed8565b6114ab565b005b3480156104d257600080fd5b506104ed60048036038101906104e89190612e5d565b6114c1565b005b61050960048036038101906105049190612ffa565b611523565b005b34801561051757600080fd5b50610532600480360381019061052d9190612ffa565b6117c1565b60405161053f9190613649565b60405180910390f35b610562600480360381019061055d9190613023565b611913565b005b34801561057057600080fd5b5061058b60048036038101906105869190612dd2565b611b50565b604051610598919061362e565b60405180910390f35b60007f80ac58cd000000000000000000000000000000000000000000000000000000007bffffffffffffffffffffffffffffffffffffffffffffffffffffffff1916827bffffffffffffffffffffffffffffffffffffffffffffffffffffffff1916148061066c57507f5b5e139f000000000000000000000000000000000000000000000000000000007bffffffffffffffffffffffffffffffffffffffffffffffffffffffff1916827bffffffffffffffffffffffffffffffffffffffffffffffffffffffff1916145b8061067c575061067b82611be4565b5b9050919050565b60606000805461069290613b9b565b80601f01602080910402602001604051908101604052809291908181526020018280546106be90613b9b565b801561070b5780601f106106e05761010080835404028352916020019161070b565b820191906000526020600020905b8154815290600101906020018083116106ee57829003601f168201915b5050505050905090565b600061072082611c4e565b61075f576040517f08c379a00000000000000000000000000000000000000000000000000000000081526004016107569061386b565b60405180910390fd5b6004600083815260200190815260200160002060009054906101000a900473ffffffffffffffffffffffffffffffffffffffff169050919050565b60006107a582611217565b90508073ffffffffffffffffffffffffffffffffffffffff168373ffffffffffffffffffffffffffffffffffffffff161415610816576040517f08c379a000000000000000000000000000000000000000000000000000000000815260040161080d906138ab565b60405180910390fd5b8073ffffffffffffffffffffffffffffffffffffffff16610835611cba565b73ffffffffffffffffffffffffffffffffffffffff16148061086457506108638161085e611cba565b611b50565b5b6108a3576040517f08c379a000000000000000000000000000000000000000000000000000000000815260040161089a9061378b565b60405180910390fd5b6108ad8383611cc2565b505050565b60007f0000000000000000000000000000000000000000000000000000000000000000905090565b606060006108e86007611d7b565b905060006108f66008611d7b565b826109019190613a9f565b90506000808267ffffffffffffffff811115610946577f4e487b7100000000000000000000000000000000000000000000000000000000600052604160045260246000fd5b60405190808252806020026020018201604052801561097f57816020015b61096c612b8e565b8152602001906001900390816109645790505b5090506000600190505b848111610b18576009600082815260200190815260200160002060040160009054906101000a900460ff16610b0557600960008281526020019081526020016000206040518060a0016040529081600082015481526020016001820160009054906101000a900473ffffffffffffffffffffffffffffffffffffffff1673ffffffffffffffffffffffffffffffffffffffff1673ffffffffffffffffffffffffffffffffffffffff1681526020016002820160009054906101000a900473ffffffffffffffffffffffffffffffffffffffff1673ffffffffffffffffffffffffffffffffffffffff1673ffffffffffffffffffffffffffffffffffffffff168152602001600382015481526020016004820160009054906101000a900460ff161515151581525050828481518110610aea577f4e487b7100000000000000000000000000000000000000000000000000000000600052603260045260246000fd5b6020026020010181905250600183610b029190613a18565b92505b8080610b1090613bfe565b915050610989565b508094505050505090565b60006658d15e17628000905090565b60606000610b406007611d7b565b9050600080600190505b828111610bde573373ffffffffffffffffffffffffffffffffffffffff166009600083815260200190815260200160002060020160009054906101000a900473ffffffffffffffffffffffffffffffffffffffff1673ffffffffffffffffffffffffffffffffffffffff161415610bcb57600182610bc89190613a18565b91505b8080610bd690613bfe565b915050610b4a565b5060008167ffffffffffffffff811115610c21577f4e487b7100000000000000000000000000000000000000000000000000000000600052604160045260246000fd5b604051908082528060200260200182016040528015610c5a57816020015b610c47612b8e565b815260200190600190039081610c3f5790505b509050600080600190505b848111610e36573373ffffffffffffffffffffffffffffffffffffffff166009600083815260200190815260200160002060020160009054906101000a900473ffffffffffffffffffffffffffffffffffffffff1673ffffffffffffffffffffffffffffffffffffffff161415610e2357600960008281526020019081526020016000206040518060a0016040529081600082015481526020016001820160009054906101000a900473ffffffffffffffffffffffffffffffffffffffff1673ffffffffffffffffffffffffffffffffffffffff1673ffffffffffffffffffffffffffffffffffffffff1681526020016002820160009054906101000a900473ffffffffffffffffffffffffffffffffffffffff1673ffffffffffffffffffffffffffffffffffffffff1673ffffffffffffffffffffffffffffffffffffffff168152602001600382015481526020016004820160009054906101000a900460ff161515151581525050838381518110610e08577f4e487b7100000000000000000000000000000000000000000000000000000000600052603260045260246000fd5b6020026020010181905250600182610e209190613a18565b91505b8080610e2e90613bfe565b915050610c65565b508194505050505090565b610e52610e4c611cba565b82611d89565b610e91576040517f08c379a0000000000000000000000000000000000000000000000000000000008152600401610e88906138eb565b60405180910390fd5b610e9c838383611e67565b505050565b600030905090565b60606000610eb76007611d7b565b9050600080600190505b828111610f55573373ffffffffffffffffffffffffffffffffffffffff166009600083815260200190815260200160002060010160009054906101000a900473ffffffffffffffffffffffffffffffffffffffff1673ffffffffffffffffffffffffffffffffffffffff161415610f4257600182610f3f9190613a18565b91505b8080610f4d90613bfe565b915050610ec1565b5060008167ffffffffffffffff811115610f98577f4e487b7100000000000000000000000000000000000000000000000000000000600052604160045260246000fd5b604051908082528060200260200182016040528015610fd157816020015b610fbe612b8e565b815260200190600190039081610fb65790505b509050600080600190505b8481116111ad573373ffffffffffffffffffffffffffffffffffffffff166009600083815260200190815260200160002060010160009054906101000a900473ffffffffffffffffffffffffffffffffffffffff1673ffffffffffffffffffffffffffffffffffffffff16141561119a57600960008281526020019081526020016000206040518060a0016040529081600082015481526020016001820160009054906101000a900473ffffffffffffffffffffffffffffffffffffffff1673ffffffffffffffffffffffffffffffffffffffff1673ffffffffffffffffffffffffffffffffffffffff1681526020016002820160009054906101000a900473ffffffffffffffffffffffffffffffffffffffff1673ffffffffffffffffffffffffffffffffffffffff1673ffffffffffffffffffffffffffffffffffffffff168152602001600382015481526020016004820160009054906101000a900460ff16151515158152505083838151811061117f577f4e487b7100000000000000000000000000000000000000000000000000000000600052603260045260246000fd5b60200260200101819052506001826111979190613a18565b91505b80806111a590613bfe565b915050610fdc565b508194505050505090565b6111d3838383604051806020016040528060008152506114c1565b505050565b60007f000000000000000000000000000000000000000000000000000000000000000073ffffffffffffffffffffffffffffffffffffffff1631905090565b6000806002600084815260200190815260200160002060009054906101000a900473ffffffffffffffffffffffffffffffffffffffff169050600073ffffffffffffffffffffffffffffffffffffffff168173ffffffffffffffffffffffffffffffffffffffff1614156112c0576040517f08c379a00000000000000000000000000000000000000000000000000000000081526004016112b7906137cb565b60405180910390fd5b80915050919050565b600047905090565b60008073ffffffffffffffffffffffffffffffffffffffff168273ffffffffffffffffffffffffffffffffffffffff161415611342576040517f08c379a0000000000000000000000000000000000000000000000000000000008152600401611339906137ab565b60405180910390fd5b600360008373ffffffffffffffffffffffffffffffffffffffff1673ffffffffffffffffffffffffffffffffffffffff168152602001908152602001600020549050919050565b600061139560076120ce565b60006113a16007611d7b565b90506113ad33826120e4565b6113fb8186868080601f016020809104026020016040519081016040528093929190818152602001838380828437600081840152601f19601f820116905080830192505050505050506122be565b6114058184612332565b61140f6007611d7b565b9150509392505050565b60606001805461142890613b9b565b80601f016020809104026020016040519081016040528092919081815260200182805461145490613b9b565b80156114a15780601f10611476576101008083540402835291602001916114a1565b820191906000526020600020905b81548152906001019060200180831161148457829003601f168201915b5050505050905090565b6114bd6114b6611cba565b838361253a565b5050565b6114d26114cc611cba565b83611d89565b611511576040517f08c379a0000000000000000000000000000000000000000000000000000000008152600401611508906138eb565b60405180910390fd5b61151d848484846126a7565b50505050565b6009600082815260200190815260200160002060040160009054906101000a900460ff1615611587576040517f08c379a000000000000000000000000000000000000000000000000000000000815260040161157e9061376b565b60405180910390fd5b346009600083815260200190815260200160002060030154146115df576040517f08c379a00000000000000000000000000000000000000000000000000000000081526004016115d6906138cb565b60405180910390fd5b60006009600083815260200190815260200160002060010160009054906101000a900473ffffffffffffffffffffffffffffffffffffffff169050336009600084815260200190815260200160002060020160006101000a81548173ffffffffffffffffffffffffffffffffffffffff021916908373ffffffffffffffffffffffffffffffffffffffff160217905550306009600084815260200190815260200160002060010160006101000a81548173ffffffffffffffffffffffffffffffffffffffff021916908373ffffffffffffffffffffffffffffffffffffffff16021790555060016009600084815260200190815260200160002060040160006101000a81548160ff0219169083151502179055506116fd60086120ce565b611708303384611e67565b7f000000000000000000000000000000000000000000000000000000000000000073ffffffffffffffffffffffffffffffffffffffff166108fc6658d15e176280009081150290604051600060405180830381858888f19350505050158015611775573d6000803e3d6000fd5b508073ffffffffffffffffffffffffffffffffffffffff166108fc349081150290604051600060405180830381858888f193505050501580156117bc573d6000803e3d6000fd5b505050565b60606117cc82611c4e565b61180b576040517f08c379a00000000000000000000000000000000000000000000000000000000081526004016118029061384b565b60405180910390fd5b600060066000848152602001908152602001600020805461182b90613b9b565b80601f016020809104026020016040519081016040528092919081815260200182805461185790613b9b565b80156118a45780601f10611879576101008083540402835291602001916118a4565b820191906000526020600020905b81548152906001019060200180831161188757829003601f168201915b5050505050905060006118b5612703565b90506000815114156118cb57819250505061190e565b6000825111156119005780826040516020016118e892919061353c565b6040516020818303038152906040529250505061190e565b6119098461271a565b925050505b919050565b3373ffffffffffffffffffffffffffffffffffffffff166009600084815260200190815260200160002060020160009054906101000a900473ffffffffffffffffffffffffffffffffffffffff1673ffffffffffffffffffffffffffffffffffffffff16146119b7576040517f08c379a00000000000000000000000000000000000000000000000000000000081526004016119ae9061380b565b60405180910390fd5b600081116119fa576040517f08c379a00000000000000000000000000000000000000000000000000000000081526004016119f19061390b565b60405180910390fd5b6658d15e176280003414611a43576040517f08c379a0000000000000000000000000000000000000000000000000000000008152600401611a3a9061366b565b60405180910390fd5b806009600084815260200190815260200160002060030181905550306009600084815260200190815260200160002060020160006101000a81548173ffffffffffffffffffffffffffffffffffffffff021916908373ffffffffffffffffffffffffffffffffffffffff160217905550336009600084815260200190815260200160002060010160006101000a81548173ffffffffffffffffffffffffffffffffffffffff021916908373ffffffffffffffffffffffffffffffffffffffff16021790555060006009600084815260200190815260200160002060040160006101000a81548160ff021916908315150217905550611b4160086127c1565b611b4c333084611e67565b5050565b6000600560008473ffffffffffffffffffffffffffffffffffffffff1673ffffffffffffffffffffffffffffffffffffffff16815260200190815260200160002060008373ffffffffffffffffffffffffffffffffffffffff1673ffffffffffffffffffffffffffffffffffffffff16815260200190815260200160002060009054906101000a900460ff16905092915050565b60007f01ffc9a7000000000000000000000000000000000000000000000000000000007bffffffffffffffffffffffffffffffffffffffffffffffffffffffff1916827bffffffffffffffffffffffffffffffffffffffffffffffffffffffff1916149050919050565b60008073ffffffffffffffffffffffffffffffffffffffff166002600084815260200190815260200160002060009054906101000a900473ffffffffffffffffffffffffffffffffffffffff1673ffffffffffffffffffffffffffffffffffffffff1614159050919050565b600033905090565b816004600083815260200190815260200160002060006101000a81548173ffffffffffffffffffffffffffffffffffffffff021916908373ffffffffffffffffffffffffffffffffffffffff160217905550808273ffffffffffffffffffffffffffffffffffffffff16611d3583611217565b73ffffffffffffffffffffffffffffffffffffffff167f8c5be1e5ebec7d5bd14f71427d1e84f3dd0314c0f7b2291e5b200ac8c7c3b92560405160405180910390a45050565b600081600001549050919050565b6000611d9482611c4e565b611dd3576040517f08c379a0000000000000000000000000000000000000000000000000000000008152600401611dca9061374b565b60405180910390fd5b6000611dde83611217565b90508073ffffffffffffffffffffffffffffffffffffffff168473ffffffffffffffffffffffffffffffffffffffff161480611e205750611e1f8185611b50565b5b80611e5e57508373ffffffffffffffffffffffffffffffffffffffff16611e4684610715565b73ffffffffffffffffffffffffffffffffffffffff16145b91505092915050565b8273ffffffffffffffffffffffffffffffffffffffff16611e8782611217565b73ffffffffffffffffffffffffffffffffffffffff1614611edd576040517f08c379a0000000000000000000000000000000000000000000000000000000008152600401611ed4906136cb565b60405180910390fd5b600073ffffffffffffffffffffffffffffffffffffffff168273ffffffffffffffffffffffffffffffffffffffff161415611f4d576040517f08c379a0000000000000000000000000000000000000000000000000000000008152600401611f449061370b565b60405180910390fd5b611f5883838361281d565b611f63600082611cc2565b6001600360008573ffffffffffffffffffffffffffffffffffffffff1673ffffffffffffffffffffffffffffffffffffffff1681526020019081526020016000206000828254611fb39190613a9f565b925050819055506001600360008473ffffffffffffffffffffffffffffffffffffffff1673ffffffffffffffffffffffffffffffffffffffff168152602001908152602001600020600082825461200a9190613a18565b92505081905550816002600083815260200190815260200160002060006101000a81548173ffffffffffffffffffffffffffffffffffffffff021916908373ffffffffffffffffffffffffffffffffffffffff160217905550808273ffffffffffffffffffffffffffffffffffffffff168473ffffffffffffffffffffffffffffffffffffffff167fddf252ad1be2c89b69c2b068fc378daa952ba7f163c4a11628f55a4df523b3ef60405160405180910390a46120c9838383612822565b505050565b6001816000016000828254019250508190555050565b600073ffffffffffffffffffffffffffffffffffffffff168273ffffffffffffffffffffffffffffffffffffffff161415612154576040517f08c379a000000000000000000000000000000000000000000000000000000000815260040161214b9061382b565b60405180910390fd5b61215d81611c4e565b1561219d576040517f08c379a0000000000000000000000000000000000000000000000000000000008152600401612194906136eb565b60405180910390fd5b6121a96000838361281d565b6001600360008473ffffffffffffffffffffffffffffffffffffffff1673ffffffffffffffffffffffffffffffffffffffff16815260200190815260200160002060008282546121f99190613a18565b92505081905550816002600083815260200190815260200160002060006101000a81548173ffffffffffffffffffffffffffffffffffffffff021916908373ffffffffffffffffffffffffffffffffffffffff160217905550808273ffffffffffffffffffffffffffffffffffffffff16600073ffffffffffffffffffffffffffffffffffffffff167fddf252ad1be2c89b69c2b068fc378daa952ba7f163c4a11628f55a4df523b3ef60405160405180910390a46122ba60008383612822565b5050565b6122c782611c4e565b612306576040517f08c379a00000000000000000000000000000000000000000000000000000000081526004016122fd906137eb565b60405180910390fd5b8060066000848152602001908152602001600020908051906020019061232d929190612beb565b505050565b60008111612375576040517f08c379a000000000000000000000000000000000000000000000000000000000815260040161236c9061390b565b60405180910390fd5b6658d15e1762800034146123be576040517f08c379a00000000000000000000000000000000000000000000000000000000081526004016123b59061366b565b60405180910390fd5b6040518060a001604052808381526020013373ffffffffffffffffffffffffffffffffffffffff1681526020013073ffffffffffffffffffffffffffffffffffffffff16815260200182815260200160001515815250600960008481526020019081526020016000206000820151816000015560208201518160010160006101000a81548173ffffffffffffffffffffffffffffffffffffffff021916908373ffffffffffffffffffffffffffffffffffffffff16021790555060408201518160020160006101000a81548173ffffffffffffffffffffffffffffffffffffffff021916908373ffffffffffffffffffffffffffffffffffffffff1602179055506060820151816003015560808201518160040160006101000a81548160ff0219169083151502179055509050506124f7333084611e67565b817fb640004f1d14576d0c209e240cad0410e0d8c0c33a09375861fbadae2588a98d333084600060405161252e949392919061357b565b60405180910390a25050565b8173ffffffffffffffffffffffffffffffffffffffff168373ffffffffffffffffffffffffffffffffffffffff1614156125a9576040517f08c379a00000000000000000000000000000000000000000000000000000000081526004016125a09061372b565b60405180910390fd5b80600560008573ffffffffffffffffffffffffffffffffffffffff1673ffffffffffffffffffffffffffffffffffffffff16815260200190815260200160002060008473ffffffffffffffffffffffffffffffffffffffff1673ffffffffffffffffffffffffffffffffffffffff16815260200190815260200160002060006101000a81548160ff0219169083151502179055508173ffffffffffffffffffffffffffffffffffffffff168373ffffffffffffffffffffffffffffffffffffffff167f17307eab39ab6107e8899845ad3d59bd9653f200f220920489ca2b5937696c318360405161269a919061362e565b60405180910390a3505050565b6126b2848484611e67565b6126be84848484612827565b6126fd576040517f08c379a00000000000000000000000000000000000000000000000000000000081526004016126f4906136ab565b60405180910390fd5b50505050565b606060405180602001604052806000815250905090565b606061272582611c4e565b612764576040517f08c379a000000000000000000000000000000000000000000000000000000000815260040161275b9061388b565b60405180910390fd5b600061276e612703565b9050600081511161278e57604051806020016040528060008152506127b9565b80612798846129be565b6040516020016127a992919061353c565b6040516020818303038152906040525b915050919050565b6000816000015490506000811161280d576040517f08c379a00000000000000000000000000000000000000000000000000000000081526004016128049061368b565b60405180910390fd5b6001810382600001819055505050565b505050565b505050565b60006128488473ffffffffffffffffffffffffffffffffffffffff16612b6b565b156129b1578373ffffffffffffffffffffffffffffffffffffffff1663150b7a02612871611cba565b8786866040518563ffffffff1660e01b815260040161289394939291906135c0565b602060405180830381600087803b1580156128ad57600080fd5b505af19250505080156128de57506040513d601f19601f820116820180604052508101906128db9190612f79565b60015b612961573d806000811461290e576040519150601f19603f3d011682016040523d82523d6000602084013e612913565b606091505b50600081511415612959576040517f08c379a0000000000000000000000000000000000000000000000000000000008152600401612950906136ab565b60405180910390fd5b805181602001fd5b63150b7a0260e01b7bffffffffffffffffffffffffffffffffffffffffffffffffffffffff1916817bffffffffffffffffffffffffffffffffffffffffffffffffffffffff1916149150506129b6565b600190505b949350505050565b60606000821415612a06576040518060400160405280600181526020017f30000000000000000000000000000000000000000000000000000000000000008152509050612b66565b600082905060005b60008214612a38578080612a2190613bfe565b915050600a82612a319190613a6e565b9150612a0e565b60008167ffffffffffffffff811115612a7a577f4e487b7100000000000000000000000000000000000000000000000000000000600052604160045260246000fd5b6040519080825280601f01601f191660200182016040528015612aac5781602001600182028036833780820191505090505b5090505b60008514612b5f57600182612ac59190613a9f565b9150600a85612ad49190613c47565b6030612ae09190613a18565b60f81b818381518110612b1c577f4e487b7100000000000000000000000000000000000000000000000000000000600052603260045260246000fd5b60200101907effffffffffffffffffffffffffffffffffffffffffffffffffffffffffffff1916908160001a905350600a85612b589190613a6e565b9450612ab0565b8093505050505b919050565b6000808273ffffffffffffffffffffffffffffffffffffffff163b119050919050565b6040518060a0016040528060008152602001600073ffffffffffffffffffffffffffffffffffffffff168152602001600073ffffffffffffffffffffffffffffffffffffffff168152602001600081526020016000151581525090565b828054612bf790613b9b565b90600052602060002090601f016020900481019282612c195760008555612c60565b82601f10612c3257805160ff1916838001178555612c60565b82800160010185558215612c60579182015b82811115612c5f578251825591602001919060010190612c44565b5b509050612c6d9190612c71565b5090565b5b80821115612c8a576000816000905550600101612c72565b5090565b6000612ca1612c9c8461396b565b613946565b905082815260208101848484011115612cb957600080fd5b612cc4848285613b59565b509392505050565b600081359050612cdb816142b9565b92915050565b600081359050612cf0816142d0565b92915050565b600081359050612d05816142e7565b92915050565b600081519050612d1a816142e7565b92915050565b600082601f830112612d3157600080fd5b8135612d41848260208601612c8e565b91505092915050565b60008083601f840112612d5c57600080fd5b8235905067ffffffffffffffff811115612d7557600080fd5b602083019150836001820283011115612d8d57600080fd5b9250929050565b600081359050612da3816142fe565b92915050565b600060208284031215612dbb57600080fd5b6000612dc984828501612ccc565b91505092915050565b60008060408385031215612de557600080fd5b6000612df385828601612ccc565b9250506020612e0485828601612ccc565b9150509250929050565b600080600060608486031215612e2357600080fd5b6000612e3186828701612ccc565b9350506020612e4286828701612ccc565b9250506040612e5386828701612d94565b9150509250925092565b60008060008060808587031215612e7357600080fd5b6000612e8187828801612ccc565b9450506020612e9287828801612ccc565b9350506040612ea387828801612d94565b925050606085013567ffffffffffffffff811115612ec057600080fd5b612ecc87828801612d20565b91505092959194509250565b60008060408385031215612eeb57600080fd5b6000612ef985828601612ccc565b9250506020612f0a85828601612ce1565b9150509250929050565b60008060408385031215612f2757600080fd5b6000612f3585828601612ccc565b9250506020612f4685828601612d94565b9150509250929050565b600060208284031215612f6257600080fd5b6000612f7084828501612cf6565b91505092915050565b600060208284031215612f8b57600080fd5b6000612f9984828501612d0b565b91505092915050565b600080600060408486031215612fb757600080fd5b600084013567ffffffffffffffff811115612fd157600080fd5b612fdd86828701612d4a565b93509350506020612ff086828701612d94565b9150509250925092565b60006020828403121561300c57600080fd5b600061301a84828501612d94565b91505092915050565b6000806040838503121561303657600080fd5b600061304485828601612d94565b925050602061305585828601612d94565b9150509250929050565b600061306b83836134b6565b60a08301905092915050565b61308081613ae5565b82525050565b61308f81613ad3565b82525050565b60006130a0826139ac565b6130aa81856139da565b93506130b58361399c565b8060005b838110156130e65781516130cd888261305f565b97506130d8836139cd565b9250506001810190506130b9565b5085935050505092915050565b6130fc81613af7565b82525050565b61310b81613af7565b82525050565b600061311c826139b7565b61312681856139eb565b9350613136818560208601613b68565b61313f81613d34565b840191505092915050565b6000613155826139c2565b61315f81856139fc565b935061316f818560208601613b68565b61317881613d34565b840191505092915050565b600061318e826139c2565b6131988185613a0d565b93506131a8818560208601613b68565b80840191505092915050565b60006131c16017836139fc565b91506131cc82613d45565b602082019050919050565b60006131e4601b836139fc565b91506131ef82613d6e565b602082019050919050565b60006132076032836139fc565b915061321282613d97565b604082019050919050565b600061322a6025836139fc565b915061323582613de6565b604082019050919050565b600061324d601c836139fc565b915061325882613e35565b602082019050919050565b60006132706024836139fc565b915061327b82613e5e565b604082019050919050565b60006132936019836139fc565b915061329e82613ead565b602082019050919050565b60006132b6602c836139fc565b91506132c182613ed6565b604082019050919050565b60006132d96014836139fc565b91506132e482613f25565b602082019050919050565b60006132fc6038836139fc565b915061330782613f4e565b604082019050919050565b600061331f602a836139fc565b915061332a82613f9d565b604082019050919050565b60006133426029836139fc565b915061334d82613fec565b604082019050919050565b6000613365602e836139fc565b91506133708261403b565b604082019050919050565b6000613388601c836139fc565b91506133938261408a565b602082019050919050565b60006133ab6020836139fc565b91506133b6826140b3565b602082019050919050565b60006133ce6031836139fc565b91506133d9826140dc565b604082019050919050565b60006133f1602c836139fc565b91506133fc8261412b565b604082019050919050565b6000613414602f836139fc565b915061341f8261417a565b604082019050919050565b60006134376021836139fc565b9150613442826141c9565b604082019050919050565b600061345a600f836139fc565b915061346582614218565b602082019050919050565b600061347d6031836139fc565b915061348882614241565b604082019050919050565b60006134a0601c836139fc565b91506134ab82614290565b602082019050919050565b60a0820160008201516134cc600085018261351e565b5060208201516134df6020850182613077565b5060408201516134f26040850182613077565b506060820151613505606085018261351e565b50608082015161351860808501826130f3565b50505050565b61352781613b4f565b82525050565b61353681613b4f565b82525050565b60006135488285613183565b91506135548284613183565b91508190509392505050565b60006020820190506135756000830184613086565b92915050565b60006080820190506135906000830187613086565b61359d6020830186613086565b6135aa604083018561352d565b6135b76060830184613102565b95945050505050565b60006080820190506135d56000830187613086565b6135e26020830186613086565b6135ef604083018561352d565b81810360608301526136018184613111565b905095945050505050565b600060208201905081810360008301526136268184613095565b905092915050565b60006020820190506136436000830184613102565b92915050565b60006020820190508181036000830152613663818461314a565b905092915050565b60006020820190508181036000830152613684816131b4565b9050919050565b600060208201905081810360008301526136a4816131d7565b9050919050565b600060208201905081810360008301526136c4816131fa565b9050919050565b600060208201905081810360008301526136e48161321d565b9050919050565b6000602082019050818103600083015261370481613240565b9050919050565b6000602082019050818103600083015261372481613263565b9050919050565b6000602082019050818103600083015261374481613286565b9050919050565b60006020820190508181036000830152613764816132a9565b9050919050565b60006020820190508181036000830152613784816132cc565b9050919050565b600060208201905081810360008301526137a4816132ef565b9050919050565b600060208201905081810360008301526137c481613312565b9050919050565b600060208201905081810360008301526137e481613335565b9050919050565b6000602082019050818103600083015261380481613358565b9050919050565b600060208201905081810360008301526138248161337b565b9050919050565b600060208201905081810360008301526138448161339e565b9050919050565b60006020820190508181036000830152613864816133c1565b9050919050565b60006020820190508181036000830152613884816133e4565b9050919050565b600060208201905081810360008301526138a481613407565b9050919050565b600060208201905081810360008301526138c48161342a565b9050919050565b600060208201905081810360008301526138e48161344d565b9050919050565b6000602082019050818103600083015261390481613470565b9050919050565b6000602082019050818103600083015261392481613493565b9050919050565b6000602082019050613940600083018461352d565b92915050565b6000613950613961565b905061395c8282613bcd565b919050565b6000604051905090565b600067ffffffffffffffff82111561398657613985613d05565b5b61398f82613d34565b9050602081019050919050565b6000819050602082019050919050565b600081519050919050565b600081519050919050565b600081519050919050565b6000602082019050919050565b600082825260208201905092915050565b600082825260208201905092915050565b600082825260208201905092915050565b600081905092915050565b6000613a2382613b4f565b9150613a2e83613b4f565b9250827fffffffffffffffffffffffffffffffffffffffffffffffffffffffffffffffff03821115613a6357613a62613c78565b5b828201905092915050565b6000613a7982613b4f565b9150613a8483613b4f565b925082613a9457613a93613ca7565b5b828204905092915050565b6000613aaa82613b4f565b9150613ab583613b4f565b925082821015613ac857613ac7613c78565b5b828203905092915050565b6000613ade82613b2f565b9050919050565b6000613af082613b2f565b9050919050565b60008115159050919050565b60007fffffffff0000000000000000000000000000000000000000000000000000000082169050919050565b600073ffffffffffffffffffffffffffffffffffffffff82169050919050565b6000819050919050565b82818337600083830152505050565b60005b83811015613b86578082015181840152602081019050613b6b565b83811115613b95576000848401525b50505050565b60006002820490506001821680613bb357607f821691505b60208210811415613bc757613bc6613cd6565b5b50919050565b613bd682613d34565b810181811067ffffffffffffffff82111715613bf557613bf4613d05565b5b80604052505050565b6000613c0982613b4f565b91507fffffffffffffffffffffffffffffffffffffffffffffffffffffffffffffffff821415613c3c57613c3b613c78565b5b600182019050919050565b6000613c5282613b4f565b9150613c5d83613b4f565b925082613c6d57613c6c613ca7565b5b828206905092915050565b7f4e487b7100000000000000000000000000000000000000000000000000000000600052601160045260246000fd5b7f4e487b7100000000000000000000000000000000000000000000000000000000600052601260045260246000fd5b7f4e487b7100000000000000000000000000000000000000000000000000000000600052602260045260246000fd5b7f4e487b7100000000000000000000000000000000000000000000000000000000600052604160045260246000fd5b6000601f19601f8301169050919050565b7f496e76616c6964206c697374696e67207061796d656e74000000000000000000600082015250565b7f436f756e7465723a2064656372656d656e74206f766572666c6f770000000000600082015250565b7f4552433732313a207472616e7366657220746f206e6f6e20455243373231526560008201527f63656976657220696d706c656d656e7465720000000000000000000000000000602082015250565b7f4552433732313a207472616e736665722066726f6d20696e636f72726563742060008201527f6f776e6572000000000000000000000000000000000000000000000000000000602082015250565b7f4552433732313a20746f6b656e20616c7265616479206d696e74656400000000600082015250565b7f4552433732313a207472616e7366657220746f20746865207a65726f2061646460008201527f7265737300000000000000000000000000000000000000000000000000000000602082015250565b7f4552433732313a20617070726f766520746f2063616c6c657200000000000000600082015250565b7f4552433732313a206f70657261746f7220717565727920666f72206e6f6e657860008201527f697374656e7420746f6b656e0000000000000000000000000000000000000000602082015250565b7f4974656d206973206e6f7420666f722073616c65000000000000000000000000600082015250565b7f4552433732313a20617070726f76652063616c6c6572206973206e6f74206f7760008201527f6e6572206e6f7220617070726f76656420666f7220616c6c0000000000000000602082015250565b7f4552433732313a2062616c616e636520717565727920666f7220746865207a6560008201527f726f206164647265737300000000000000000000000000000000000000000000602082015250565b7f4552433732313a206f776e657220717565727920666f72206e6f6e657869737460008201527f656e7420746f6b656e0000000000000000000000000000000000000000000000602082015250565b7f45524337323155524953746f726167653a2055524920736574206f66206e6f6e60008201527f6578697374656e7420746f6b656e000000000000000000000000000000000000602082015250565b7f4f6e6c79206f776e6564206974656d732063616e20626520736f6c6400000000600082015250565b7f4552433732313a206d696e7420746f20746865207a65726f2061646472657373600082015250565b7f45524337323155524953746f726167653a2055524920717565727920666f722060008201527f6e6f6e6578697374656e7420746f6b656e000000000000000000000000000000602082015250565b7f4552433732313a20617070726f76656420717565727920666f72206e6f6e657860008201527f697374656e7420746f6b656e0000000000000000000000000000000000000000602082015250565b7f4552433732314d657461646174613a2055524920717565727920666f72206e6f60008201527f6e6578697374656e7420746f6b656e0000000000000000000000000000000000602082015250565b7f4552433732313a20617070726f76616c20746f2063757272656e74206f776e6560008201527f7200000000000000000000000000000000000000000000000000000000000000602082015250565b7f496e76616c6964207061796d656e740000000000000000000000000000000000600082015250565b7f4552433732313a207472616e736665722063616c6c6572206973206e6f74206f60008201527f776e6572206e6f7220617070726f766564000000000000000000000000000000602082015250565b7f5072696365206d757374206265206174206c6561737420312077656900000000600082015250565b6142c281613ad3565b81146142cd57600080fd5b50565b6142d981613af7565b81146142e457600080fd5b50565b6142f081613b03565b81146142fb57600080fd5b50565b61430781613b4f565b811461431257600080fd5b5056fea26469706673582212207683b0de30c566df2e58fbfd1ff5daed77d9cf810b1ff5077ad03650c5eb4da264736f6c63430008040033",
  "linkReferences": {},
  "deployedLinkReferences": {}
}